:100000000C942A000C9475000C9447000C94470043
:100010000C948B070C9447000C9447000C944700F9
:100020000C9447000C94A0020C945A040C947B038B
:100030000C9447000C9447000C9447000C94470024
:100040000C9447000C9447000C9447000C94470014
:100050000C94470011241FBECFE5D4E0DEBFCDBF16
:1000600010E0A0E6B0E0E8EBFFE002C005900D92E2
:10007000A837B107D9F710E0A8E7B0E001C01D929A
:10008000A23BB107E1F70E9449000C94DA070C94F7
:100090000000DF93CF93CDB7DEB70E94BF000E9470
:1000A000080260E074E284EF90E020E031EE40E08E
:1000B00050E00E941E03FFCFDF93CF93CDB7DEB792
:1000C000A5E5B0E0E5E5F0E0808183608C93ABE5E9
:1000D000B0E0EBE5F0E0808180648C9310927900D1
:1000E00010927800CF91DF9108951F920F920FB672
:1000F0000F9211248F939F93EF93FF93DF93CF93EE
:10010000CDB7DEB7E0E3F0E08081882F90E0887023
:100110009070009751F48091780090917900019649
:10012000909379008093780009C080917800909135
:10013000790001979093790080937800CF91DF91B7
:10014000FF91EF919F918F910F900FBE0F901F9095
:100150001895DF93CF93CDB7DEB710927900109248
:100160007800CF91DF910895DF93CF93CDB7DEB7BD
:100170008091780090917900CF91DF910895DF937D
:10018000CF93CDB7DEB7A1E3B0E0E1E3F0E080814B
:1001900080648C93AAE3B0E0EAE3F0E080818068B9
:1001A0008C93ABE3B0E0EBE3F0E0808180688C936C
:1001B000CF91DF910895DF93CF93CDB7DEB789E07C
:1001C00090E090937B0080937A0081E090E09093A0
:1001D0007F0080937E0081E090E090937D0080938B
:1001E0007C00109281001092800010928300109287
:1001F000820010928500109284008091840090917A
:100200008500909387008093860010928900109259
:100210008800809188009091890090938B00809352
:100220008A0010928D0010928C0010928E00109215
:100230008F001092900010929100CF91DF9108955D
:10024000DF93CF9300D0CDB7DEB79A8389838981BE
:100250009A8190938300809382000F900F90CF91AA
:10026000DF910895DF93CF9300D0CDB7DEB79A83A7
:100270008983209182003091830089819A81A9012C
:10028000481B590BCA0190938500809384002091EC
:100290008400309185008091860090918700B9019B
:1002A000681B790BCB019093890080938800209183
:1002B00088003091890080917A0090917B00289F7E
:1002C000A001299F500D389F500D112420918400CA
:1002D0003091850080917C0090917D00BC01269F2B
:1002E000C001279F900D369F900D1124480F591F74
:1002F000209188003091890080918A0090918B0034
:10030000281B390B8091800090918100BC01269FB1
:10031000C001279F900D369F900D1124840F951FCB
:1003200090938D0080938C0080918C0090918D0033
:100330009C01442737FD4095542F80918E00909169
:100340008F00A0919000B0919100820F931FA41F85
:10035000B51F80938E0090938F00A0939000B09370
:10036000910080918E0090918F00A0919000B091AB
:100370009100813876E9970778E9A70770E0B70719
:1003800064F080E896E9A8E9B0E080938E0090934D
:100390008F00A0939000B093910080918E00909177
:1003A0008F00A0919000B0919100803829E69207CB
:1003B00027E6A2072FEFB20764F480E899E6A7E6E4
:1003C000BFEF80938E0090938F00A0939000B09326
:1003D0009100809184009091850090938700809394
:1003E0008600809188009091890090938B00809383
:1003F0008A0080918E0090918F00A0919000B09122
:100400009100BC01CD010F900F90CF91DF91089525
:10041000DF93CF93CDB7DEB7A1E3B0E0E1E3F0E047
:10042000808180638C93AFE4B0E0EFE4F0E0808102
:10043000826B8C93AEE4B0E0EEE4F0E08081816109
:100440008C93E6E4F0E080E991E091838083EAE434
:10045000F0E088EC90E091838083E8E4F0E088ECC1
:1004600090E091838083CF91DF910895DF93CF93C4
:1004700000D000D000D0CDB7DEB76B837C838D83F6
:100480009E838B819C81AD81BE81853B9105A105B9
:10049000B1052CF084EB90E09A83898315C08B81A1
:1004A0009C81AD81BE818C342FEF92072FEFA20784
:1004B0002FEFB2072CF48CE49FEF9A83898304C05A
:1004C0008B819C819A838983F894EAE4F0E08981A6
:1004D0009A8188539F4F91838083A8E4B0E0EAE437
:1004E000F0E08081918111969C938E93789426966A
:1004F0000FB6F894DEBF0FBECDBFCF91DF91089548
:10050000DF93CF93CDB7DEB7E3E5F0E01082E2E50D
:10051000F0E083E88083A9E5B0E0E9E5F0E08081E0
:1005200081608C93A3E5B0E0E3E5F0E08081846036
:100530008C931092930010929200CF91DF910895C6
:100540001F920F920FB60F9211242F933F934F9348
:100550005F936F937F938F939F93AF93BF93EF932B
:10056000FF93DF93CF93CDB7DEB70E94B400909393
:100570009500809394000E94A900E3E5F0E01082CA
:10058000E2E5F0E083E88083A3E5B0E0E3E5F0E0B6
:10059000808184608C9378948091940090919500F0
:1005A0000E943201DC01CB01809398009093990066
:1005B000A0939A00B0939B0080919800909199002D
:1005C000A0919A00B0919B00BC01CD010E9436021F
:1005D0008091920090919300019690939300809364
:1005E000920080919200909193008A30910599F445
:1005F0008091940090919500892F990F990B0E94FA
:10060000640380919400909195000E94640310927D
:10061000930010929200CF91DF91FF91EF91BF91E3
:10062000AF919F918F917F916F915F914F913F918A
:100630002F910F900FBE0F901F901895DF93CF93BF
:10064000CDB7DEB72A970FB6F894DEBF0FBECDBF89
:100650006B837C838D839E832F83388749875A875A
:100660008B819C81AD81BE812F81388549855A85DA
:10067000BC01CD010E94B807DA01C901689413F8E2
:10068000B695A795979587951694D1F701979A8374
:100690008983E0E4F0E089819A81892F992780831A
:1006A000E9E2F0E089818083AAE2B0E0EAE2F0E0EA
:1006B000808188698C932A960FB6F894DEBF0FBEAE
:1006C000CDBFCF91DF910895DF93CF930F92CDB738
:1006D000DEB78983EBE2F0E08081882F90E08072C2
:1006E00090700097B9F3ECE2F0E0898180830F907D
:1006F000CF91DF9108951F920F920FB60F921124A0
:100700002F933F934F935F936F937F938F939F9319
:10071000AF93BF93EF93FF93DF93CF930F92CDB738
:10072000DEB7ECE2F0E08081898389810E94640376
:100730000F90CF91DF91FF91EF91BF91AF919F917A
:100740008F917F916F915F914F913F912F910F907A
:100750000FBE0F901F901895DF93CF93CDB7DEB7E4
:1007600088E190E028E00FB6F894A89581BD0FBE0F
:1007700021BDCF91DF910895DF93CF93CDB7DEB741
:10078000A895CF91DF910895DF93CF9300D000D04B
:100790000F92CDB7DEB789834A835B836C837D83F9
:1007A00089818823D9F58A819B81AC81BD81807044
:1007B0009270A070B070072E79E0B695A7959795C6
:1007C00087957A95D1F7702D80939E008A819B81C1
:1007D000917090939D0080939C0080919C009091DB
:1007E0009D0096958795969587959093A000809308
:1007F0009F0080919E00813059F480919F009091DC
:10080000A000909581959F4F9093A00080939F00AA
:1008100080919F009091A0000E9420010F900F9066
:100820000F900F900F90CF91DF910895DF93CF93AA
:1008300000D000D000D0CDB7DEB79E838D838D81F0
:100840009E81CC01A0E0B0E089839A83AB83BC8316
:1008500089819A81AB81BC81BC01CD0126960FB6FE
:10086000F894DEBF0FBECDBFCF91DF910895DF9327
:10087000CF93CDB7DEB781E080936400A7E3B0E00B
:10088000E7E3F0E0808180648C93ADE2B0E0EDE2DC
:10089000F0E08081826C8C93AEE2B0E0EEE2F0E0BA
:1008A000808181608C93EFE2F0E080E48083CF91DF
:1008B000DF9108951F920F920FB60F9211242F937C
:1008C0003F934F935F936F937F938F939F93AF93D8
:1008D000BF93EF93FF93DF93CF9300D0CDB7DEB7F5
:1008E000789480916400282F30E03A8329838981AD
:1008F0009A818530910509F441C029813A812630D9
:100900003105DCF489819A818230910571F1298168
:100910003A812330310534F489819A8181309105FF
:1009200009F13BC029813A812330310509F18981E0
:100930009A8184309105F9F030C029813A812730BD
:10094000310511F189819A8187309105D4F029818F
:100950003A8128303105D9F089819A818930910511
:10096000C9F01BC00E94F4041AC00E94D30517C02E
:100970000E94770614C00E94A90611C00E94C506F5
:100980000EC00E94D3060BC00E94450708C00E94FB
:10099000530705C00E94E60402C00E9461070E943E
:1009A0006F070F900F90CF91DF91FF91EF91BF9163
:1009B000AF919F918F917F916F915F914F913F91F7
:1009C0002F910F900FBE0F901F901895DF93CF932C
:1009D000CDB7DEB789E080936400EFE2F0E08AEA09
:1009E0008083CF91DF910895EF92FF920F931F9331
:1009F000DF93CF93CDB7DEB7EFE2F0E08081809355
:100A0000A1008091A100882F90E0807E90700097D7
:100A100009F0BBC08091A10081708093A2008091F9
:100A2000A100882F90E08F719070959587958093A5
:100A3000A4008091A400823040F0EFE2F0E080E476
:100A4000808381E080936400A7C08091A200882306
:100A5000D9F58091A400282F30E081E090E002C019
:100A6000880F991F2A95E2F79C018091750090915B
:100A7000760082239323009741F0EFE2F0E080E8D4
:100A8000808388E08093640087C081E08093AE001B
:100A90008091A400882F90E0FC01EB59FF4F8081EA
:100AA0008093AF001092A5001092A6001092A700AC
:100AB0001092A8001092A300EFE2F0E080E680839D
:100AC00082E08093640068C081E08093AD008091F3
:100AD000A400882F90E0FC01EB59FF4F80818093A8
:100AE000AF001092A3008DE790E0A0E0B0E080930B
:100AF000A9009093AA00A093AB00B093AC008091A2
:100B0000AF00282F30E0C901880F991F880F991F67
:100B1000820F931F85508093B0002091A9003091DF
:100B2000AA004091AB005091AC008091B000882F9A
:100B300090E079018A0104C016950795F794E7942F
:100B40008A95D2F7D801C7018F718093B100909137
:100B5000A3008091B10089278093A300EFE2F0E029
:100B60008091AD00882F90E0880F991F8295929513
:100B7000907F9827807F9827982F8091B100892BAC
:100B8000808386E08093640007C0EFE2F0E080E4B9
:100B9000808381E080936400CF91DF911F910F915A
:100BA000FF90EF900895DF93CF93CDB7DEB7EFE2DC
:100BB000F0E080818093A1008091A10082958695CC
:100BC00087708093AD009091AD008091AE00981732
:100BD00009F083C0EFE2F0E080E680839091A3000B
:100BE0008091A10089278093A3009091AE0080910D
:100BF000AF00981708F04DC08091AE008F5F8093D2
:100C0000AE008091A100882F90E0A0E0B0E09C01B0
:100C1000AD012F713070407050708091A50090919F
:100C2000A600A091A700B091A800822B932BA42B23
:100C3000B52B8093A5009093A600A093A700B09336
:100C4000A8008091A5009091A600A091A700B09166
:100C5000A800880F991FAA1FBB1F880F991FAA1FE2
:100C6000BB1F880F991FAA1FBB1F880F991FAA1FA0
:100C7000BB1F880F991FAA1FBB1F8093A5009093CD
:100C8000A600A093A700B093A80082E08093640020
:100C90002BC08091A100882F90E0A0E0B0E09C01E3
:100CA000AD012F713070407050708091A50090910F
:100CB000A600A091A700B091A800822B932BA42B93
:100CC000B52B8093A5009093A600A093A700B093A6
:100CD000A80083E08093640007C0EFE2F0E080E4C6
:100CE000808381E080936400CF91DF910895DF934A
:100CF000CF93CDB7DEB7EFE2F0E080818093A10023
:100D00008091A100882F90E0807E9070803E9105B8
:100D1000B1F48091A100282F30E08091A300882FAA
:100D200090E0822793278F719070009741F4EFE253
:100D3000F0E080EE808384E08093640007C0EFE2FF
:100D4000F0E080E4808381E080936400CF91DF91C4
:100D50000895DF93CF93CDB7DEB7EFE2F0E080E404
:100D6000808381E0809364008091A4002091A5009D
:100D70003091A6004091A7005091A800BA01A901A6
:100D80000E94C403CF91DF910895DF93CF93CDB735
:100D9000DEB7EFE2F0E080E4808381E080936400DE
:100DA000CF91DF910895EF92FF920F931F93DF93FE
:100DB000CF93CDB7DEB7EFE2F0E080818093A10062
:100DC0008091A100803609F052C08091AD008F5F04
:100DD0008093AD009091AD008091AF008917E8F14C
:100DE0008091B00085508093B0002091A90030918F
:100DF000AA004091AB005091AC008091B000882FC8
:100E000090E079018A0104C016950795F794E7945C
:100E10008A95D2F7D801C7018F718093B100909164
:100E2000A3008091B10089278093A300EFE2F0E056
:100E30008091AD00882F90E0880F991F8295929540
:100E4000907F9827807F9827982F8091B100892BD9
:100E5000808386E08093640011C0EFE2F0E080912F
:100E6000A300806E808387E08093640007C081E0E8
:100E700080936400EFE2F0E080E48083CF91DF9123
:100E80001F910F91FF90EF900895DF93CF93CDB70F
:100E9000DEB7EFE2F0E080E4808381E080936400DD
:100EA000CF91DF910895DF93CF93CDB7DEB7EFE217
:100EB000F0E080E4808381E080936400CF91DF9153
:100EC0000895DF93CF93CDB7DEB7EFE2F0E080EA8D
:100ED000808385E080936400CF91DF910895DF9354
:100EE000CF93CDB7DEB7E5E4F0E01082E4E4F0E0C4
:100EF0008BE98083A9E5B0E0E9E5F0E080818064DA
:100F00008C93A5E4B0E0E5E4F0E0808183608C930D
:100F1000CF91DF9108951F920F920FB60F92112477
:100F20002F933F934F935F936F937F938F939F93F1
:100F3000AF93BF93EF93FF93DF93CF93CDB7DEB71C
:100F4000E5E4F0E010820E943704CF91DF91FF9139
:100F5000EF91BF91AF919F918F917F916F915F9131
:100F60004F913F912F910F900FBE0F901F901895AA
:100F7000A1E21A2EAA1BBB1BFD010DC0AA1FBB1F9D
:100F8000EE1FFF1FA217B307E407F50720F0A21B0F
:100F9000B30BE40BF50B661F771F881F991F1A947C
:100FA00069F760957095809590959B01AC01BD01A6
:080FB000CF010895F894FFCF72
:100FB8000A00F6FF01020200000000000000000025
:080FC80000000000000200001F
:00000001FF
