:100000000C942A000C9447000C9447000C94470071
:100010000C94C4060C9447000C9447000C944700C1
:100020000C9447000C9447000C945C060C94470019
:100030000C9447000C9447000C9447000C94470024
:100040000C9447000C9447000C9447000C94130147
:100050000C94470011241FBECFE5D4E0DEBFCDBF16
:1000600010E0A0E6B0E0E0E0FEE002C005900D92F6
:10007000A437B107D9F711E0A4E7B0E001C01D92A1
:10008000A73EB107E1F70E94F8030C94FE060C941A
:100090000000282FE8E3F0E080818D7F808390E0EE
:1000A000222354F480818D7F8083808184608083CB
:1000B00080818260808309C080818D7F8083808180
:1000C0008B7F80838081826080839F5F983011F076
:1000D000220FE6CF08954F925F926F927F928F9298
:1000E0009F92AF92BF92CF92DF92EF92FF920F93C7
:1000F0001F93CF93DF9300E010E0C0E0D0E0CC246A
:10010000DD24C394442455240F2EF5EBEF2EF1E0AB
:10011000FF2EF02DC701AE2CB92EC6016C2C792E06
:100120000F2EF0E18F2EF7E29F2EF02DC601002E4C
:1001300002C0880F991F0A94E2F7482F406F92017E
:10014000CE01820F931FF701E80FF91F80818130E4
:1001500059F4C9010496B60102C0660F771F8A954B
:10016000E2F7CB01809548232F5F3F4F24303105C4
:1001700039F7842F0E944900C4010197F1F70F5FFE
:100180001F4F24960430110589F6DF91CF911F91FE
:100190000F91FF90EF90DF90CF90BF90AF909F9026
:1001A0008F907F906F905F904F900895F89481E0CA
:1001B0008093B401109274001092E50110927500C2
:1001C000E8E3F0E080818160808380E49FE1019733
:1001D000F1F7789481E0809377008091770088230D
:1001E00031F00E946B00809177008823D1F78FE077
:1001F0000E94490020ED37E048EC50E0CA01019729
:10020000F1F721503040D1F780EF0E94490028EBF0
:100210003BE048EC50E0CA010197F1F72150304033
:10022000D1F70895089578941F920F920FB60F9208
:1002300011242F933F934F938F939F93EF93FF93AB
:10024000789480916000882309F403C1809175003F
:10025000882329F4E8E3F0E080818E7F8083809119
:100260007500813009F4EAC080917500833009F08F
:10027000E5C0E6E2F0E0808180648083808186FDD5
:10028000FDCF85B190E09093930080939200809190
:10029000740082958F708093E5018091E501E5ED12
:1002A000F1E0E80FF11D80812091920030919300E0
:1002B00090E08217930728F58091E501E5EBF1E0E6
:1002C000E80FF11D80818823E1F48091E501E5EBE1
:1002D000F1E0E80FF11D81E080834091E50120917C
:1002E000790030917A0081E090E002C0880F991F78
:1002F0004A95E2F7822B932B90937A0080937900B2
:1003000034C08091E501E5ECF1E0E80FF11D80815A
:10031000209192003091930090E02817390728F53A
:100320008091E501E5EBF1E0E80FF11D808181307E
:10033000E1F48091E501E5EBF1E0E80FF11D1082B9
:100340004091E5012091790030917A0081E090E0C0
:1003500002C0880F991F4A95E2F7809590958223F5
:10036000932390937A0080937900E8E3F0E0808112
:10037000816080838091E50180917400805F80932B
:100380007400809174008BBB8091E501893011F479
:100390008093E50180917700882331F1E091B401E9
:1003A000F0E02091E5018091920090919300E29518
:1003B000F295F07FFE27E07FFE27E20FF11DEE0FA2
:1003C000FF1FEC56FF4F918380838091E5018F30B2
:1003D00029F48091B4018F5F8093B4018091B401BE
:1003E000853011F41092770080917800882331F1E4
:1003F000E091B401F0E02091E501809192009091AC
:100400009300E295F295F07FFE27E07FFE27E20F52
:10041000F11DEE0FFF1FEC56FF4F918380838091FB
:10042000E5018F3029F48091B4018F5F8093B4018E
:100430008091B401893011F4109278008091750098
:100440008F5F8093750080917500843011F4109255
:100450007500FF91EF919F918F914F913F912F9157
:100460000F900FBE0F901F901895AF92BF92CF9232
:10047000DF92EF92FF920F931F93CF93DF93C0E031
:10048000D0E001E010E00F2EFCE3EF2EFF24F02D72
:100490000F2EF5EDAF2EF1E0BF2EF02D0F2EF5EC67
:1004A000CF2EF1E0DF2EF02DF701808181FDFCCF12
:1004B000CE01880F991F0E94E906F501EC0FFD1F80
:1004C0008083C8010E94E906F601EC0FFD1F8083BE
:1004D00021960E5F1F4FC031D10531F7DF91CF91CB
:1004E0001F910F91FF90EF90DF90CF90BF90AF9052
:1004F00008952F923F924F925F926F927F928F92C8
:100500009F92AF92BF92CF92DF92EF92FF920F93A2
:100510001F93CF93DF93F89410927400109275009C
:10052000E8E3F0E080818160808380E49FE10197CF
:10053000F1F7789481E080937800809178008823A7
:1005400009F432C10E946B00809178008823D1F7B2
:100550002BC13E01CE014096880F991FF401E80F90
:10056000F91FA080B180CE018096880F991FF401F9
:10057000E80FF91F40815181CE01C096880F991F65
:10058000F401E80FF91FC080D180CE01805C9F4F3D
:10059000880F991FF401E80FF91F00811181CE0126
:1005A000805B9F4F880F991FF401E80FF91FE080CF
:1005B000F180CE01805A9F4F880F991FF401E80FF8
:1005C000F91F20813181CE0180599F4F880F991FDB
:1005D000F401E80FF91FA081B181CE0180589F4F2F
:1005E000880F991FF401E80FF91F608171814A0D8E
:1005F0005B1D4C0D5D1D400F511FCA01880F991FD7
:10060000840F951F929582958F7089279F708927F7
:100610002E0D3F1D2A0F3B1F260F371F32952295A7
:100620002F7023273F702327820F931F9E01220FD5
:10063000331FF401E20FF31F91838083F201808165
:1006400081FDFCCFC301880F991F6401C80ED91E1C
:10065000F60160817181CE01880F991F0E94F10619
:10066000C3014096880F991FF401E80FF91FA0807D
:10067000B180C3018096880F991FF401E80FF91F1C
:1006800040815181C301C096880F991FF401E80F82
:10069000F91FE080F180C301805C9F4F880F991F94
:1006A000F401E80FF91F00811181C301805B9F4FA6
:1006B000880F991FF401E80FF91FA081B181C301D0
:1006C000805A9F4F880F991FF401E80FF91F20816E
:1006D0003181C30180599F4F880F991FF401E80FA2
:1006E000F91F60817181C30180589F4F880F991F46
:1006F000F401E80FF91F808191812A0F3B1F260F1B
:10070000371F280F391FC901880F991F820F931FA8
:10071000929582958F7089279F7089274A0D5B1D5E
:100720004E0D5F1D400F511F529542954F7045274A
:100730005F704527840F951FF60191838083F20136
:10074000808181FDFCCFC301880F991FF401E80F60
:10075000F91F60817181C1010E94F106219682E03A
:1007600090E0280E391EC031D10509F0F2CE0E946A
:1007700035028FE00E94490020ED37E048EC50E060
:10078000CA010197F1F721503040D1F780EF0E9464
:10079000490028EB3BE048EC50E0CA010197F1F733
:1007A00021503040D1F711C0C0E0D0E022243324E2
:1007B00023940F2EF4E98F2EF0E09F2EF02D0F2EB4
:1007C000FCE34F2E5524F02DC4CEDF91CF911F9125
:1007D0000F91FF90EF90DF90CF90BF90AF909F90E0
:1007E0008F907F906F905F904F903F902F900895E3
:1007F000CF93DF9384E18CBF12BE8BE183BFE9E529
:10080000F0E0808182608083EAE3F0E080EF808323
:1008100080818E7F80831BBA8FE087BBE4E3F0E0AA
:1008200080818C7F808380E687B9E6E2F0E080817A
:10083000836880830E946C040E943502EFE5F0E03B
:10084000808180688083C3E3D0E00E946B00888150
:1008500080FD02C00E94D600888181FDF6CF0E94F3
:100860007902F3CF882389F4413051056105710580
:1008700051F481E080936000109275001092E501C0
:10088000109274000895109260000895DF93CF9342
:1008900000D000D0CDB7DEB7019729F020E030E0DE
:1008A00040E050E00EC08091790090917A00A0E085
:1008B000B0E089839A83AB83BC8329813A814B81E1
:1008C0005C81622F732F842F952F0F900F900F90C4
:1008D0000F90CF91DF91089581E080936100E7E36D
:1008E000F0E0808180648083EDE2F0E08081826CC2
:1008F0008083EEE2F0E080818160808380E48FB9C4
:10090000089589E0809361008AEA8FB908958FB1D4
:100910008093800080918000829586958770809377
:100920008C0090918C0080918D00981709F07BC00D
:1009300080E68FB990918200809180008927809312
:10094000820090918D0080918E00981708F04AC027
:1009500080918D008F5F80938D0080918000209129
:10096000840030918500409186005091870090E08E
:10097000A0E0B0E08F719070A070B070822B932BCC
:10098000A42BB52B8093840090938500A0938600C0
:10099000B09387008091840090918500A09186009B
:1009A000B0918700880F991FAA1FBB1F880F991F3E
:1009B000AA1FBB1F880F991FAA1FBB1F880F991F53
:1009C000AA1FBB1F880F991FAA1FBB1F80938400FB
:1009D00090938500A0938600B093870082E0809377
:1009E00061000895809180002091840030918500FD
:1009F000409186005091870090E0A0E0B0E08F71B8
:100A00009070A070B070822B932BA42BB52B809389
:100A1000840090938500A0938600B093870083E0C4
:100A200080936100089580E68FB981E08093610032
:100A300008958FB18093800080918000807E803EF9
:100A400091F4209180008091820090E030E0822734
:100A500093278F719070892B31F480EE8FB984E0E9
:100A600080936100089580E68FB981E080936100F2
:100A7000089580E48FB981E08093610008958FB17B
:100A80008093800080918000803609F042C0809180
:100A90008C008F5F80938C0090918C0080918E00F1
:100AA000891768F180918F00855080938F00809125
:100AB000880090918900A0918A00B0918B002091CC
:100AC0008F0004C0B695A795979587952A95D2F77C
:100AD0008F7180939000909182008091900089277F
:100AE0008093820080918C00909190008295880F75
:100AF000807E892B8FB986E0809361000895809174
:100B00008200806E8093E6018FB987E08093610058
:100B1000089581E08093610080E48FB9089580E4B6
:100B20008FB981E080936100089580E48FB981E0FE
:100B300080936100089580EA8FB985E08093610019
:100B4000089580E48FB981E08093610080918300F3
:100B500040918400509185006091860070918700DB
:100B60000E94320408958FB18093800080918000AC
:100B7000807E09F09BC0809180008170809381000D
:100B80008091800090E08F7190709595879580930B
:100B9000830080918300823030F080EA8FB985E055
:100BA00080936100089580918100882399F5409198
:100BB0008300209172003091730081E090E002C0C8
:100BC000880F991F4A95E2F782239323892B31F0EE
:100BD00080E88FB988E080936100089581E0809378
:100BE0008D0080918300E2E6F0E0E80FF11D808146
:100BF00080938E00109284001092850010928600DF
:100C0000109287001092820080E68FB982E0809374
:100C10006100089581E080938C0080918300E2E67A
:100C2000F0E0E80FF11D808180938E001092820029
:100C30008091830090E00E94460460938800709346
:100C4000890080938A0090938B0080918E0025E02C
:100C5000829FC0011124855080938F00809188006D
:100C600090918900A0918A00B0918B0020918F0013
:100C700004C0B695A795979587952A95D2F78F7159
:100C800080939000909182008091900089278093BA
:100C9000820080918C00909190008295880F807ED8
:100CA000892B8FB986E080936100089580E68FB923
:100CB00081E08093610008951F920F920FB60F920A
:100CC00011242F933F934F935F936F937F938F9351
:100CD0009F93AF93BF93EF93FF9380916100853013
:100CE00019F1863060F48230B1F0833018F481302D
:100CF00051F50EC0833091F0843029F512C0873051
:100D0000C9F08730A0F08830C1F08930E1F418C014
:100D10000E94B3051AC00E94870417C00E941905DB
:100D200014C00E94A10511C00E9439050EC00E9486
:100D30003F050BC00E948F0508C00E94950505C0A5
:100D40000E94810402C00E949B05FF91EF91BF9118
:100D5000AF919F918F917F916F915F914F913F9153
:100D60002F910F900FBE0F901F901895A5E4B0E043
:100D70001C928BE984BDE9E5F0E08081806480838A
:100D80008C9183608C9308951F920F920FB60F92EF
:100D900011242F933F934F935F936F937F938F9380
:100DA0009F93AF93BF93EF93FF9315BC0E946C0486
:100DB000FF91EF91BF91AF919F918F917F916F9133
:100DC0005F914F913F912F910F900FBE0F901F9009
:100DD0001895E199FECF9FBB8EBBE09A99278DB302
:100DE0000895262FE199FECF9FBB8EBB2DBB0FB67A
:100DF000F894E29AE19A0FBE01960895F894FFCF15
:100E000001010104000000000000000000000000DB
:040E100000000200DC
:00000001FF
