:100000000C942A000C9447000C9447000C94470071
:100010000C9447000C9447000C9447000C94470044
:100020000C9447000C9447000C9447000C94470034
:100030000C9447000C9447000C9447000C94470024
:100040000C9447000C9447000C9447000C94470014
:100050000C94470011241FBECFE5D4E0DEBFCDBF16
:1000600010E0A0E6B0E0E4E0F1E102C005900D92FE
:10007000AC3AB107D9F711E0ACEAB0E001C01D928B
:10008000AA3BB107E1F70E9403040C9480080C948A
:100090000000DF93CF9300D000D00F92CDB7DEB732
:1000A0008D83A2E3B0E0E2E3F0E0808182608C9394
:1000B0008D81882F90E081709070880F991FFC01CE
:1000C000E05AFF4F808191819C838B8311C0A8E50A
:1000D000B0E0E8E5F0E080818F778C93E8E5F0E030
:1000E00080818823DCF78B819C8101979C838B83A3
:1000F0008B819C81009759F7A2E3B0E0E2E3F0E046
:1001000080818D7F8C9384EF91E09A83898311C0E5
:10011000A8E5B0E0E8E5F0E080818F778C93E8E532
:10012000F0E080818823DCF789819A8101979A83A6
:10013000898389819A81009759F70F900F900F90CA
:100140000F900F90CF91DF910895DF93CF9300D060
:10015000CDB7DEB79A83898311C0A8E5B0E0E8E5A2
:10016000F0E080818F778C93E8E5F0E08081882350
:10017000DCF789819A8101979A83898389819A81A1
:10018000009759F70F900F90CF91DF910895DF936B
:10019000CF9300D0CDB7DEB789836A8309C0898148
:1001A0000E9449008981869589838A8181508A834A
:1001B0008A818823A1F70F900F90CF91DF91089546
:1001C000DF93CF9300D00F92CDB7DEB78B838B81B7
:1001D000882F90E081709070882341F0A2E3B0E016
:1001E000E2E3F0E080818D7F8C9307C0A2E3B0E072
:1001F000E2E3F0E0808182608C9388EC90E09A8367
:10020000898311C0A8E5B0E0E8E5F0E080818F7750
:100210008C93E8E5F0E080818823DCF789819A817E
:1002200001979A83898389819A81009759F70F9062
:100230000F900F90CF91DF910895DF93CF930F929E
:10024000CDB7DEB7898380E00E94E00089818F709E
:10025000806189830AC089810E94E000898180953C
:100260000E94E0008981869589838981823098F790
:1002700081E00E94E0000F90CF91DF910895DF931D
:10028000CF930F92CDB7DEB7898389810E941D017C
:10029000898182958F700E941D010F90CF91DF910F
:1002A0000895DF93CF93CDB7DEB7CF91DF91089557
:1002B000DF93CF9300D0CDB7DEB7EBE2F0E08081E3
:1002C00088239CF4ECE2F0E0808180958A838A8127
:1002D000882359F019828A818C3010F481E0898357
:1002E00082EB90E069810E9498040F900F90CF916B
:1002F000DF910895DF93CF9300D00F92CDB7DEB793
:100300001B82EBE2F0E0808188236CF5ECE2F0E008
:10031000808180958A838A81882329F119828A8144
:100320008C3010F481E089839091AE008981891727
:1003300091F48091AF00843040F082EB90E06981CD
:100340000E9498041092AF000CC08091AF008F5FA4
:100350008093AF0006C089818093AE0081E08093D6
:10036000AF0081E08B838B81882399F0ECE4F0E08F
:1003700011821082A8E5B0E0E8E5F0E080818B7F93
:100380008C93A8E3B0E0E8E3F0E080818D7F8C936C
:1003900039C0ECE4F0E08081918123E0883E92074F
:1003A00048F4E8E5F0E08081882F90E08470907058
:1003B000009741F1ECE4F0E011821082A8E5B0E092
:1003C000E8E5F0E080818B7F8C93A8E3B0E0E8E380
:1003D000F0E0808182608C9382EB90E00E94410586
:1003E0001092AF001092AE00AAE2B0E0EAE2F0E0B4
:1003F00080818F7E8C93AAE2B0E0EAE2F0E0808117
:1004000080618C930F900F900F90CF91DF910895A2
:10041000DF93CF93CDB7DEB7E7E3F0E083E08083EF
:10042000E1E3F0E082E88083E2E3F0E01082E5E4DB
:10043000F0E089E18083E4E4F0E01082E3E4F0E0BE
:1004400088E68083EBE2F0E080E28083EAE2F0E09D
:1004500080E18083E0E4F0E086E88083E0E4F0E09F
:100460001082E9E2F0E087E68083EEE4F0E085E0E8
:100470008083ECE4F0E01182108285EB95E00E942D
:100480009603CF91DF910895DF93CF93CDB7DEB779
:10049000CF91DF910895DF93CF9300D000D0CDB7F7
:1004A000DEB7E0E3F0E08081882F90E08870907004
:1004B000009719F483E70E943F010E94510180EAEE
:1004C00096E8A1E0B0E089839A83AB83BC838981FD
:1004D0009A81AB81BC810197A109B10989839A8373
:1004E000AB83BC8389819A81AB81BC810097A105D4
:1004F000B10569F70F900F900F900F90CF91DF919A
:100500000895DF93CF93CDB7DEB727970FB6F89452
:10051000DEBF0FBECDBFAAE2B0E0EAE2F0E080812C
:100520008F7E8C93E0E3F0E08081882F90E08074F0
:100530009070009721F480E00E9449000CC0E0E335
:10054000F0E08081882F90E088709070009719F417
:1005500081E00E944900AAE2B0E0EAE2F0E0808196
:1005600080618C9388EB9BE0A0E0B0E08B839C8360
:10057000AD83BE8331C0EBE2F0E08081882364F577
:10058000ECE2F0E0808180958A838A81882321F1E2
:100590008A818C3018F482E08F8302C081E08F83DF
:1005A0008F818983E6E3F0E0908189818923882324
:1005B00059F0A8E3B0E0E8E3F0E08081982F89816A
:1005C000809589238C9308C0A8E3B0E0E8E3F0E0CD
:1005D00090818981892B8C938B819C81AD81BE8197
:1005E0000197A109B1098B839C83AD83BE838B8165
:1005F0009C81AD81BE810097A105B10509F0BBCFFB
:1006000027960FB6F894DEBF0FBECDBFCF91DF9116
:100610000895DF93CF9300D000D0CDB7DEB71C8212
:10062000E0E3F0E08081882F90E080749070009784
:1006300099F4AAE2B0E0EAE2F0E080818F7E8C9348
:1006400085E064E00E94C700AAE2B0E0EAE2F0E0E0
:10065000808180618C931BC0E0E3F0E08081882F73
:1006600090E088709070009791F4AAE2B0E0EAE21E
:10067000F0E080818F7E8C9383E064E00E94C7006D
:10068000AAE2B0E0EAE2F0E0808180618C930E940F
:100690007A0182EB90E00E942D048430910508F4E9
:1006A0003EC01B821A8217C082EB90E00E943D047C
:1006B000282F30E08A81882F90E0A90102C0440FE2
:1006C000551F8A95E2F7CA01982F8B81892B8B835E
:1006D0008A818F5F8A838A81843030F38B81853071
:1006E000F1F481E08983E6E3F0E090818981892358
:1006F000882359F0A8E3B0E0E8E3F0E08081982F88
:100700008981809589238C9308C0A8E3B0E0E8E351
:10071000F0E090818981892B8C9381E08C830F900C
:100720000F900F900F90CF91DF910895DF93CF93AB
:1007300000D0CDB7DEB79A83898389819A8190935F
:10074000AD008093AC000F900F90CF91DF91089592
:10075000DF93CF930F92CDB7DEB786E00E946A0792
:10076000882349F0809166009091670001979093EB
:1007700067008093660083E00E946A07882349F03F
:100780008091660090916700019690936700809336
:10079000660085E00E946A07882349F08091640022
:1007A000909165000197909365008093640084E0C8
:1007B0000E946A07882349F0809164009091650047
:1007C000019690936500809364000E94DD079C0170
:1007D00080916600909167002817390784F40E9481
:1007E000DD079C01809164009091650019822817B3
:1007F000390714F481E0898389810E9449000F90B0
:10080000CF91DF910895DF93CF93CDB7DEB782EB21
:1008100090E00E94150488E092E00E949603E09127
:10082000AC00F091AD000995FACFDF93CF9300D0E3
:10083000CDB7DEB79A838983E981FA81118210826C
:10084000E981FA8113821282E981FA811582148288
:100850000F900F90CF91DF910895DF93CF9300D049
:10086000CDB7DEB79A838983E981FA818481958146
:100870000F900F90CF91DF910895DF93CF9300D029
:100880000F92CDB7DEB79B838A83EA81FB8180819B
:1008900091819C0136952795369527953695279514
:1008A0008A819B81820F931FFC0136968081282FBD
:1008B00030E0EA81FB818081918187709070A9018D
:1008C00002C0559547958A95E2F7CA018983EA8166
:1008D000FB81848195810197EA81FB8195838483E3
:1008E000EA81FB81808191810196EA81FB8191837C
:1008F0008083EA81FB818081918196958795969589
:1009000087959695879551E08030950751F4EA8157
:10091000FB818081918187709070EA81FB81918356
:10092000808389810F900F900F90CF91DF91089570
:10093000DF93CF9300D00F92CDB7DEB79A83898330
:100940006B83E981FA8182819381AC015695479549
:100950005695479556954795E981FA81828193810D
:100960009C0136952795369527953695279589814B
:100970009A81820F931FFC0136968081682FE9814E
:10098000FA81828193819C012770307081E090E030
:1009900002C0880F991F2A95E2F780958623282F99
:1009A00089819A81840F951FFC0136962083E98105
:1009B000FA8182819381BC017695679576956795DA
:1009C00076956795E981FA81828193819C013695BC
:1009D0002795369527953695279589819A81820F97
:1009E000931FFC0136968081482F8B81882F90E0E1
:1009F0009C0121703070E981FA8182819381877036
:100A00009070F90102C0EE0FFF1F8A95E2F7CF0147
:100A1000842B282F89819A81860F971FFC01369697
:100A20002083E981FA81848195810196E981FA81A7
:100A300095838483E981FA81828193810196E9819A
:100A4000FA8193838283E981FA81828193819695E9
:100A500087959695879596958795F1E080309F07C5
:100A600051F4E981FA818281938187709070E981E4
:100A7000FA81938382830F900F900F90CF91DF9133
:100A80000895DF93CF9300D0CDB7DEB79A838983E3
:100A900089819A810E9415040F900F90CF91DF9168
:100AA0000895DF93CF9300D000D00F92CDB7DEB77B
:100AB0006A837B838C839D83198215C08A819B8185
:100AC00081709070882319F089818F5F89838A8172
:100AD0009B81AC81BD81B695A795979587958A83B3
:100AE0009B83AC83BD838A819B81AC81BD81009750
:100AF000A105B10519F789810F900F900F900F9004
:100B00000F90CF91DF910895DF93CF9300D0CDB7B1
:100B1000DEB7EBE2F0E0808188237CF4ECE2F0E0E9
:100B20008081809589838981882339F08EEE95E0D4
:100B30000E94960381E08A8301C01A828A810F9005
:100B40000F90CF91DF910895DF93CF930F92CDB7A0
:100B5000DEB7898389818093B80186EB96E00E9495
:100B600096030F90CF91DF910895DF93CF93CDB788
:100B7000DEB780EC95E00E949603CF91DF91089557
:100B8000DF93CF93CDB7DEB70E948405882319F594
:100B900086E00E946A07882321F080E00E94A40575
:100BA0001AC083E00E946A07882321F081E00E9436
:100BB000A40511C085E00E946A07882321F082E025
:100BC0000E94A40508C084E00E946A07882319F0E7
:100BD00083E00E94A405CF91DF910895DF93CF9326
:100BE000CDB7DEB72B970FB6F894DEBF0FBECDBFE3
:100BF000188619861A861B861F8286EB93E09E83D1
:100C00008D8345C0EBE2F0E0808188237CF5ECE247
:100C1000F0E0808180958C838C818823C1F18C8168
:100C20008C30E0F48F81282F30E081E090E0A0E06C
:100C3000B0E004C0880F991FAA1FBB1F2A95D2F7E6
:100C40009C01AD0188859985AA85BB85822B932B54
:100C5000A42BB52B88879987AA87BB878F818F5F45
:100C60008F8386EB93E09E838D8311C0A8E5B0E06F
:100C7000E8E5F0E080818F778C93E8E5F0E0808113
:100C80008823DCF78D819E8101979E838D83EBE223
:100C9000F0E0808188230CF4B5CF8D819E81009790
:100CA00009F0B0CF84E68B838091B0008A831F82E5
:100CB0002EC08F81882F90E0880F991F880F991F71
:100CC000FC01E859FF4F20813181428153818885A1
:100CD0009985AA85BB8582279327A427B527BC01C0
:100CE000CD010E945105898399818B81981728F441
:100CF0008F818A8389818B8307C099818B81981723
:100D000019F48091B0008A838F818F5F8F838F81E8
:100D1000803118F48B81882361F69091B0008A812C
:100D20008917B9F08B818730A0F48A81982F906160
:100D30008091B000292F281B822F8F7081508093C3
:100D4000B9018A818093B00080E397E00E94960306
:100D500004C085EB95E00E9496032B960FB6F8949D
:100D6000DEBF0FBECDBFCF91DF910895DF93CF934C
:100D700000D000D00F92CDB7DEB79091B100809136
:100D8000B801890F8F5F8F708093B100AAE2B0E045
:100D9000EAE2F0E080818F7E8C931D8236C08091E4
:100DA000B100882F90E0880F991F880F991FFC01D0
:100DB000E859FF4F80819181A281B38189839A8311
:100DC000AB83BC8380E00E94490010C089818170A0
:100DD0000E94490089819A81AB81BC81B695A79513
:100DE0009795879589839A83AB83BC8389819A8100
:100DF000AB81BC810097A105B10541F78CE697E076
:100E00000E94A5008D818F5F8D838D81803438F2A3
:100E1000AAE2B0E0EAE2F0E0808180618C9385EBA9
:100E200095E00E9496030F900F900F900F900F90F7
:100E3000CF91DF910895DF93CF93CDB7DEB7CF91F8
:100E4000DF910895DF93CF93CDB7DEB7CF91DF91D8
:100E50000895DF93CF93CDB7DEB7CF91DF9108959B
:100E6000DF93CF93CDB7DEB78091B901882341F4EA
:100E7000A8E3B0E0E8E3F0E0808181608C9323C0D8
:100E80008091B901813041F4A8E3B0E0E8E3F0E0FB
:100E900080818E7F8C9317C08091B901823041F49C
:100EA000A8E3B0E0E8E3F0E0808182608C930BC0BF
:100EB0008091B901833039F4A8E3B0E0E8E3F0E0D1
:100EC00080818D7F8C9385EB95E00E949603CF9176
:100ED000DF910895DF93CF9300D0CDB7DEB789833C
:100EE000E0E3F0E08081282F30E08981882F90E0D6
:100EF000A90102C0559547958A95E2F7CA0181700C
:100F000090701A82009711F451E05A838A810F90F1
:100F10000F90CF91DF910895A0E0B0E0E2E9F7E013
:100F20000C942F08EC01A880B980CA80DB80A11442
:100F3000B104C104D10441F484E2A82E89EDB82E95
:100F40008BE5C82E87E0D82EC601B5012DE133EF21
:100F500041E050E00E940C0827EA31E440E050E014
:100F60000E94ED077B018C01C601B5012DE133EF35
:100F700041E050E00E940C08CA01B9012CEE34EFA8
:100F80004FEF5FEF0E94ED076E0D7F1D801F911FD9
:100F900097FF04C061507040804090486883798317
:100FA0008A839B839B013F77C901CDB7DEB7EAE017
:100FB0000C944B080E948C07089588EA90E00E94E8
:100FC0008C070895A0E0B0E08093A8009093A9005A
:100FD000A093AA00B093AB000895629FD001739FC5
:100FE000F001829FE00DF11D649FE00DF11D929FC5
:100FF000F00D839FF00D749FF00D659FF00D992704
:10100000729FB00DE11DF91F639FB00DE11DF91F27
:10101000BD01CF011124089597FB092E05260ED09E
:1010200057FD04D04BD00AD0001C38F450954095A1
:10103000309521953F4F4F4F5F4F0895F6F79095AC
:101040008095709561957F4F8F4F9F4F08952F9298
:101050003F924F925F926F927F928F929F92AF9248
:10106000BF92CF92DF92EF92FF920F931F93CF9395
:10107000DF93CDB7DEB7CA1BDB0B0FB6F894DEBF2C
:101080000FBECDBF09942A88398848885F846E8452
:101090007D848C849B84AA84B984C884DF80EE809C
:1010A000FD800C811B81AA81B981CE0FD11D0FB6A5
:1010B000F894DEBF0FBECDBFED010895A1E21A2E58
:1010C000AA1BBB1BFD010DC0AA1FBB1FEE1FFF1FEC
:1010D000A217B307E407F50720F0A21BB30BE40B3C
:1010E000F50B661F771F881F991F1A9469F7609583
:1010F0007095809590959B01AC01BD01CF0108953D
:04110000F894FFCF91
:101104002C019600FF3F4100B394DE38CDEB9C36B2
:101114000B91A61A73001A4E17219430954A06D9DA
:101124004203BF5767BC36F5A6C3F0C84E27E68511
:10113400B2720DCCB7D5198798FF48B79776BBDB49
:0C1144009E08151FA4F2DA030100000051
:00000001FF
