:100000000C942A000C9447000C9447000C94470071
:100010000C9447000C9447000C9447000C94470044
:100020000C9447000C9447000C9447000C94470034
:100030000C9447000C9447000C9447000C94470024
:100040000C9447000C9447000C9447000C94470014
:100050000C94470011241FBECFE5D4E0DEBFCDBF16
:1000600010E0A0E6B0E0EEE7F7E002C005900D92E8
:10007000A236B107D9F710E0A2E6B0E001C01D92A8
:10008000A23BB107E1F70E94A5010C94BD030C94BB
:100090000000DF93CF9300D0CDB7DEB79A8389837A
:1000A00005C089819A8101979A83898389819A8180
:1000B0000097B9F70F900F90CF91DF910895DF93DC
:1000C000CF9300D00F92CDB7DEB79B838A832A816E
:1000D0003B8182E690E0281B390B8DEC9CECAC0157
:1000E000249FC001259F900D349F900D112489837A
:1000F000ABE3B0E0EBE3F0E08081282F2F70898143
:10010000882F90E082959295907F9827807F9827FE
:10011000822B8C93A8E3B0E0E8E3F0E080818E7F4F
:100120008C9382E390E00E9449000E941E03EA81C2
:10013000FB818383A8E3B0E0E8E3F0E080818160A5
:100140008C938AE090E00E9449000F900F900F90EE
:10015000CF91DF910895DF93CF9300D0CDB7DEB775
:100160009A83898389819A810E945F00E981FA815B
:100170009381E981FA818281891740F4E981FA81CA
:1001800084818160E981FA81848307C0E981FA81F1
:1001900084818E7FE981FA8184830F900F90CF91C3
:1001A000DF910895DF93CF9300D0CDB7DEB79A8368
:1001B000898389819A810E945F00E981FA81938114
:1001C000E981FA818081981730F4E981FA8183818D
:1001D000E981FA818083E981FA819381E981FA8159
:1001E0008181891730F4E981FA818381E981FA817B
:1001F00081830F900F90CF91DF910895DF93CF937C
:1002000000D0CDB7DEB79A838983E981FA818081F6
:10021000282F30E040E050E0E981FA818181882F89
:1002200090E0A0E0B0E0820F931FA41FB51F2CE365
:1002300030E040E050E0BC01CD010E943A03DC0117
:10024000CB012FEF30E040E050E0BC01CD010E9437
:100250006C03DA01C901E981FA8182830F900F9062
:10026000CF91DF910895DF93CF9300D0CDB7DEB764
:100270009A83898380916000E981FA8182830F905B
:100280000F90CF91DF910895DF93CF9300D0CDB73A
:10029000DEB79A838983E981FA818FEF8083E981D0
:1002A000FA811182E981FA81148280916000E981EA
:1002B000FA8182830F900F90CF91DF910895DF93A1
:1002C000CF9300D000D00F92CDB7DEB78B831A82C8
:1002D00019822EC0A8E3B0E0E8E3F0E080818D7FD2
:1002E0008C938B81882F90E081709070882349F0E7
:1002F000A8E3B0E0E8E3F0E0808184608C938C9127
:1003000008C0A8E3B0E0E8E3F0E080818B7F8C9345
:100310008C91A8E3B0E0E8E3F0E0808182608C9308
:100320008B8186958B8389819A8101969A838983B3
:1003300089819A81883091056CF20F900F900F900F
:100340000F900F90CF91DF910895DF93CF93CDB7AA
:10035000DEB72F970FB6F894DEBF0FBECDBFE7E331
:10036000F0E08FE08083E8E3F0E081E08083E3E584
:10037000F0E08BE18083E2E5F0E01082ECE5F0E074
:1003800082E48083E9E5F0E01082E8E5F0E01082A5
:10039000EAE3F0E080EF8083EBE3F0E01082E4E357
:1003A000F0E01082E5E3F0E01082E7E2F0E080E6C2
:1003B0008083E6E2F0E080E880831B868B85282F2F
:1003C00030E03D872C874C855D8541305105D9F162
:1003D0008C859D858230910534F42C853D852115D1
:1003E000310571F0EBCF4C855D854230510509F444
:1003F0005CC08C859D858330910509F497C0DECF64
:100400001A86198612C029853A85C901880F991F55
:10041000880F991F820F931F8E599F4F0E9444018E
:1004200089859A8501969A87898789859A858031F9
:1004300091054CF380E00E945F0180E00E945F0123
:1004400081E08B87BBCFE3E3F0E08081882F90E0F1
:1004500081709070009711F482E08B87E3E3F0E005
:100460008081882F90E082709070009709F0A6CF6D
:1004700018861F8212C02F813885C901880F991FE5
:10048000880F991F820F931F8E599F4F0E9433012F
:100490008F819885019698878F838F819885803189
:1004A00091054CF383E08B8789CF1E821D8212C099
:1004B0002D813E81C901880F991F880F991F820FD6
:1004C000931F8E599F4F0E94D2008D819E8101966D
:1004D0009E838D838D819E81803191054CF3E3E372
:1004E000F0E08081882F90E081709070882309F47B
:1004F00065CF1E821D8212C02D813E81C901880FE9
:10050000991F880F991F820F931F8E599F4F0E942A
:10051000FE008D819E8101969E838D838D819E81BB
:10052000803191054CF383E08B8748CF1C821B827E
:100530007EC02B813C81C901880F991F880F991FAC
:10054000820F931F8E599F4F0E94AB008B819C811D
:1005500024E030E0B9010E9459038330910509F08D
:1005600061C08B819C819F878E872E853F85332339
:1005700034F44E855F854D5F5F4F5F874E878E8574
:100580009F8595958795959587959C0180E890E046
:10059000022E02C0959587950A94E2F78A8383E03C
:1005A000898330C08981282F332727FD30958B819F
:1005B0009C81AC01421B530B9A01C901880F991F02
:1005C000880F991F820F931FFC01EA59FF4F80810A
:1005D000882F90E081709070882389F08981282F7E
:1005E000332727FD309581E090E0022E02C0880F6E
:1005F000991F0A94E2F7982F8A81892B8A8389812F
:1006000081508983898188236CF680E00E945F0194
:1006100080E00E945F018A810E945F0188EE93E082
:100620000E9449008B819C8101969C838B838B81E6
:100630009C81803191050CF47CCFC0CEDF93CF93A9
:10064000CDB7DEB7A6E2B0E0E6E2F0E080818064FC
:100650008C93E6E2F0E08081882F90E080749070C7
:100660000097B9F7E5E2F0E08081882F90E0CF9124
:10067000DF910895629FD001739FF001829FE00D8A
:10068000F11D649FE00DF11D929FF00D839FF00D11
:10069000749FF00D659FF00D9927729FB00DE11DBD
:1006A000F91F639FB00DE11DF91FBD01CF0111249A
:1006B000089597FB092E07260AD077FD04D027D08E
:1006C00006D000201AF4709561957F4F0895F6F7D3
:1006D000909581959F4F089597FB092E05260ED082
:1006E00057FD04D028D00AD0001C38F4509540950E
:1006F000309521953F4F4F4F5F4F0895F6F79095F6
:100700008095709561957F4F8F4F9F4F0895AA1BDD
:10071000BB1B51E107C0AA1FBB1FA617B70710F0EC
:10072000A61BB70B881F991F5A95A9F7809590951E
:10073000BC01CD010895A1E21A2EAA1BBB1BFD012D
:100740000DC0AA1FBB1FEE1FFF1FA217B307E407B0
:10075000F50720F0A21BB30BE40BF50B661F771F08
:10076000881F991F1A9469F76095709580959095E8
:0E0770009B01AC01BD01CF010895F894FFCFAD
:02077E00140065
:00000001FF
